{
  "contractName": "ContactList",
  "abi": [
    {
      "inputs": [
        {
          "internalType": "uint256",
          "name": "",
          "type": "uint256"
        }
      ],
      "name": "contact",
      "outputs": [
        {
          "internalType": "string",
          "name": "name",
          "type": "string"
        },
        {
          "internalType": "string",
          "name": "phoneNumber",
          "type": "string"
        }
      ],
      "stateMutability": "view",
      "type": "function"
    },
    {
      "inputs": [
        {
          "internalType": "string",
          "name": "",
          "type": "string"
        }
      ],
      "name": "nameToPhoneNumber",
      "outputs": [
        {
          "internalType": "string",
          "name": "",
          "type": "string"
        }
      ],
      "stateMutability": "view",
      "type": "function"
    },
    {
      "inputs": [
        {
          "internalType": "string",
          "name": "_name",
          "type": "string"
        },
        {
          "internalType": "string",
          "name": "_phoneNumber",
          "type": "string"
        }
      ],
      "name": "addContact",
      "outputs": [],
      "stateMutability": "nonpayable",
      "type": "function"
    }
  ],
  "bytecode": "0x608060405234801561001057600080fd5b5061085b806100206000396000f3fe608060405234801561001057600080fd5b50600436106100415760003560e01c80630c1cc170146100465780632b6258b31461007757806396a063f814610093575b600080fd5b610060600480360381019061005b919061045d565b6100c3565b60405161006e929190610523565b60405180910390f35b610091600480360381019061008c919061068f565b610207565b005b6100ad60048036038101906100a89190610707565b6102ba565b6040516100ba9190610750565b60405180910390f35b600081815481106100d357600080fd5b90600052602060002090600202016000915090508060000180546100f6906107a1565b80601f0160208091040260200160405190810160405280929190818152602001828054610122906107a1565b801561016f5780601f106101445761010080835404028352916020019161016f565b820191906000526020600020905b81548152906001019060200180831161015257829003601f168201915b505050505090806001018054610184906107a1565b80601f01602080910402602001604051908101604052809291908181526020018280546101b0906107a1565b80156101fd5780601f106101d2576101008083540402835291602001916101fd565b820191906000526020600020905b8154815290600101906020018083116101e057829003601f168201915b5050505050905082565b600060405180604001604052808481526020018381525090806001815401808255809150506001900390600052602060002090600202016000909190919091506000820151816000019080519060200190610263929190610370565b506020820151816001019080519060200190610280929190610370565b50505080600183604051610294919061080e565b908152602001604051809103902090805190602001906102b5929190610370565b505050565b60018180516020810182018051848252602083016020850120818352809550505050505060009150905080546102ef906107a1565b80601f016020809104026020016040519081016040528092919081815260200182805461031b906107a1565b80156103685780601f1061033d57610100808354040283529160200191610368565b820191906000526020600020905b81548152906001019060200180831161034b57829003601f168201915b505050505081565b82805461037c906107a1565b90600052602060002090601f01602090048101928261039e57600085556103e5565b82601f106103b757805160ff19168380011785556103e5565b828001600101855582156103e5579182015b828111156103e45782518255916020019190600101906103c9565b5b5090506103f291906103f6565b5090565b5b8082111561040f5760008160009055506001016103f7565b5090565b6000604051905090565b600080fd5b600080fd5b6000819050919050565b61043a81610427565b811461044557600080fd5b50565b60008135905061045781610431565b92915050565b6000602082840312156104735761047261041d565b5b600061048184828501610448565b91505092915050565b600081519050919050565b600082825260208201905092915050565b60005b838110156104c45780820151818401526020810190506104a9565b838111156104d3576000848401525b50505050565b6000601f19601f8301169050919050565b60006104f58261048a565b6104ff8185610495565b935061050f8185602086016104a6565b610518816104d9565b840191505092915050565b6000604082019050818103600083015261053d81856104ea565b9050818103602083015261055181846104ea565b90509392505050565b600080fd5b600080fd5b7f4e487b7100000000000000000000000000000000000000000000000000000000600052604160045260246000fd5b61059c826104d9565b810181811067ffffffffffffffff821117156105bb576105ba610564565b5b80604052505050565b60006105ce610413565b90506105da8282610593565b919050565b600067ffffffffffffffff8211156105fa576105f9610564565b5b610603826104d9565b9050602081019050919050565b82818337600083830152505050565b600061063261062d846105df565b6105c4565b90508281526020810184848401111561064e5761064d61055f565b5b610659848285610610565b509392505050565b600082601f8301126106765761067561055a565b5b813561068684826020860161061f565b91505092915050565b600080604083850312156106a6576106a561041d565b5b600083013567ffffffffffffffff8111156106c4576106c3610422565b5b6106d085828601610661565b925050602083013567ffffffffffffffff8111156106f1576106f0610422565b5b6106fd85828601610661565b9150509250929050565b60006020828403121561071d5761071c61041d565b5b600082013567ffffffffffffffff81111561073b5761073a610422565b5b61074784828501610661565b91505092915050565b6000602082019050818103600083015261076a81846104ea565b905092915050565b7f4e487b7100000000000000000000000000000000000000000000000000000000600052602260045260246000fd5b600060028204905060018216806107b957607f821691505b6020821081036107cc576107cb610772565b5b50919050565b600081905092915050565b60006107e88261048a565b6107f281856107d2565b93506108028185602086016104a6565b80840191505092915050565b600061081a82846107dd565b91508190509291505056fea264697066735822122010c24bd6b45ac86b0e19a255b6bf959485aa6df61f0f01b0dfcd919a07d48d1564736f6c634300080d0033",
  "immutableReferences": {},
  "source": "// SPDX-License-Identifier: MIT\npragma solidity >=0.4.22 <0.9.0;\n\ncontract ContactList {\n     struct Contact {\n        // assosiate name with phone number\n        string name;\n        string phoneNumber;\n    \n    }\n    Contact[] public contact; //array for list of contacts\n    mapping(string => string) public nameToPhoneNumber; //used to map name to phone number, so you can get phone number using name\n    function addContact(string memory _name, string memory _phoneNumber) public {\n        contact.push(Contact(_name, _phoneNumber)); //append to  Contact[] array\n        nameToPhoneNumber[_name] = _phoneNumber; //use name to get phone number\n    }\n}\n\n",
  "sourcePath": "C:\\Users\\Al\\Desktop\\Contact\\contracts\\ContactList.sol",
  "compiler": {
    "name": "solc",
    "version": "0.8.13+commit.abaa5c0e.Emscripten.clang"
  },
  "schemaVersion": "3.4.7",
  "updatedAt": "2022-04-22T00:52:29.508Z",
  "devdoc": {
    "kind": "dev",
    "methods": {},
    "version": 1
  },
  "userdoc": {
    "kind": "user",
    "methods": {},
    "version": 1
  }
}